{
  "_format": "hh-sol-artifact-1",
  "contractName": "PrivatePayroll",
  "sourceName": "src/PrivatePayroll.sol",
  "abi": [
    {
      "inputs": [
        {
          "internalType": "address",
          "name": "_trustedNotary",
          "type": "address"
        }
      ],
      "stateMutability": "nonpayable",
      "type": "constructor"
    },
    {
      "anonymous": false,
      "inputs": [
        {
          "indexed": true,
          "internalType": "address",
          "name": "employee",
          "type": "address"
        },
        {
          "indexed": false,
          "internalType": "uint256",
          "name": "timestamp",
          "type": "uint256"
        }
      ],
      "name": "SalaryVerified",
      "type": "event"
    },
    {
      "inputs": [],
      "name": "TRUSTED_NOTARY",
      "outputs": [
        {
          "internalType": "address",
          "name": "",
          "type": "address"
        }
      ],
      "stateMutability": "view",
      "type": "function"
    },
    {
      "inputs": [],
      "name": "getMySalary",
      "outputs": [
        {
          "internalType": "uint256",
          "name": "",
          "type": "uint256"
        }
      ],
      "stateMutability": "view",
      "type": "function"
    },
    {
      "inputs": [
        {
          "internalType": "uint256",
          "name": "salary",
          "type": "uint256"
        },
        {
          "internalType": "uint256",
          "name": "timestamp",
          "type": "uint256"
        },
        {
          "internalType": "bytes",
          "name": "signature",
          "type": "bytes"
        }
      ],
      "name": "verifyAndStoreSalary",
      "outputs": [],
      "stateMutability": "nonpayable",
      "type": "function"
    }
  ],
  "bytecode": "0x60a060405234801561001057600080fd5b50604051610b90380380610b90833981810160405281019061003291906100f4565b600073ffffffffffffffffffffffffffffffffffffffff168173ffffffffffffffffffffffffffffffffffffffff1614156100a2576040517f08c379a00000000000000000000000000000000000000000000000000000000081526004016100999061015d565b60405180910390fd5b8073ffffffffffffffffffffffffffffffffffffffff1660808173ffffffffffffffffffffffffffffffffffffffff1660601b81525050506101d7565b6000815190506100ee816101c0565b92915050565b60006020828403121561010657600080fd5b6000610114848285016100df565b91505092915050565b600061012a60168361017d565b91507f496e76616c6964206e6f746172792061646472657373000000000000000000006000830152602082019050919050565b600060208201905081810360008301526101768161011d565b9050919050565b600082825260208201905092915050565b6000610199826101a0565b9050919050565b600073ffffffffffffffffffffffffffffffffffffffff82169050919050565b6101c98161018e565b81146101d457600080fd5b50565b60805160601c6109946101fc600039600081816101da015261035801526109946000f3fe608060405234801561001057600080fd5b50600436106100415760003560e01c806369a84cbc14610046578063759972d914610064578063fbc77cdd14610080575b600080fd5b61004e61009e565b60405161005b91906107d9565b60405180910390f35b61007e600480360381019061007991906104ce565b610170565b005b610088610356565b6040516100959190610719565b60405180910390f35b6000600160003373ffffffffffffffffffffffffffffffffffffffff1673ffffffffffffffffffffffffffffffffffffffff16815260200190815260200160002060009054906101000a900460ff1661012c576040517f08c379a000000000000000000000000000000000000000000000000000000000815260040161012390610799565b60405180910390fd5b6000803373ffffffffffffffffffffffffffffffffffffffff1673ffffffffffffffffffffffffffffffffffffffff16815260200190815260200160002054905090565b6000338484604051602001610187939291906106b6565b6040516020818303038152906040528051906020012090506000816040516020016101b291906106f3565b60405160208183030381529060405280519060200120905060006101d6828561037a565b90507f000000000000000000000000000000000000000000000000000000000000000073ffffffffffffffffffffffffffffffffffffffff168173ffffffffffffffffffffffffffffffffffffffff1614610266576040517f08c379a000000000000000000000000000000000000000000000000000000000815260040161025d90610779565b60405180910390fd5b856000803373ffffffffffffffffffffffffffffffffffffffff1673ffffffffffffffffffffffffffffffffffffffff1681526020019081526020016000208190555060018060003373ffffffffffffffffffffffffffffffffffffffff1673ffffffffffffffffffffffffffffffffffffffff16815260200190815260200160002060006101000a81548160ff0219169083151502179055503373ffffffffffffffffffffffffffffffffffffffff167fda47dbdd73ee8a87238c5383d4f820cf7f260a0de2b3b3031b77f551c8bb64028660405161034691906107d9565b60405180910390a2505050505050565b7f000000000000000000000000000000000000000000000000000000000000000081565b600080600080610389856103e9565b925092509250600186828585604051600081526020016040526040516103b29493929190610734565b6020604051602081039080840390855afa1580156103d4573d6000803e3d6000fd5b50505060206040510351935050505092915050565b60008060006041845114610432576040517f08c379a0000000000000000000000000000000000000000000000000000000008152600401610429906107b9565b60405180910390fd5b6020840151925060408401519150606084015160001a90509193909250565b600061046461045f84610825565b6107f4565b90508281526020810184848401111561047c57600080fd5b6104878482856108c4565b509392505050565b600082601f8301126104a057600080fd5b81356104b0848260208601610451565b91505092915050565b6000813590506104c881610947565b92915050565b6000806000606084860312156104e357600080fd5b60006104f1868287016104b9565b9350506020610502868287016104b9565b925050604084013567ffffffffffffffff81111561051f57600080fd5b61052b8682870161048f565b9150509250925092565b61053e81610871565b82525050565b61055561055082610871565b6108d3565b82525050565b61056481610883565b82525050565b61057b61057682610883565b6108e5565b82525050565b600061058e601c83610866565b91507f19457468657265756d205369676e6564204d6573736167653a0a3332000000006000830152601c82019050919050565b60006105ce601883610855565b91507f496e76616c6964204e6f74617279205369676e617475726500000000000000006000830152602082019050919050565b600061060e601083610855565b91507f4e6f2073616c617279207265636f7264000000000000000000000000000000006000830152602082019050919050565b600061064e601883610855565b91507f496e76616c6964207369676e6174757265206c656e67746800000000000000006000830152602082019050919050565b61068a816108ad565b82525050565b6106a161069c826108ad565b610901565b82525050565b6106b0816108b7565b82525050565b60006106c28286610544565b6014820191506106d28285610690565b6020820191506106e28284610690565b602082019150819050949350505050565b60006106fe82610581565b915061070a828461056a565b60208201915081905092915050565b600060208201905061072e6000830184610535565b92915050565b6000608082019050610749600083018761055b565b61075660208301866106a7565b610763604083018561055b565b610770606083018461055b565b95945050505050565b60006020820190508181036000830152610792816105c1565b9050919050565b600060208201905081810360008301526107b281610601565b9050919050565b600060208201905081810360008301526107d281610641565b9050919050565b60006020820190506107ee6000830184610681565b92915050565b6000604051905081810181811067ffffffffffffffff8211171561081b5761081a61090b565b5b8060405250919050565b600067ffffffffffffffff8211156108405761083f61090b565b5b601f19601f8301169050602081019050919050565b600082825260208201905092915050565b600081905092915050565b600061087c8261088d565b9050919050565b6000819050919050565b600073ffffffffffffffffffffffffffffffffffffffff82169050919050565b6000819050919050565b600060ff82169050919050565b82818337600083830152505050565b60006108de826108ef565b9050919050565b6000819050919050565b60006108fa8261093a565b9050919050565b6000819050919050565b7f4e487b7100000000000000000000000000000000000000000000000000000000600052604160045260246000fd5b60008160601b9050919050565b610950816108ad565b811461095b57600080fd5b5056fea26469706673582212201749d5782a3c9eea4310563bff5561cdf2b4e9e5247f2df97a24598265ca38d864736f6c63430008000033",
  "linkReferences": {},
  "deployedLinkReferences": {}
}